{
  "contractName": "Courier",
  "abi": [
    {
      "constant": true,
      "inputs": [
        {
          "name": "",
          "type": "uint256"
        }
      ],
      "name": "packageCourierId",
      "outputs": [
        {
          "name": "",
          "type": "address"
        }
      ],
      "payable": false,
      "stateMutability": "view",
      "type": "function"
    },
    {
      "constant": true,
      "inputs": [
        {
          "name": "",
          "type": "address"
        }
      ],
      "name": "pendingDeliveryCharge",
      "outputs": [
        {
          "name": "",
          "type": "uint256"
        }
      ],
      "payable": false,
      "stateMutability": "view",
      "type": "function"
    },
    {
      "constant": true,
      "inputs": [
        {
          "name": "",
          "type": "uint256"
        }
      ],
      "name": "packages",
      "outputs": [
        {
          "name": "id",
          "type": "uint256"
        },
        {
          "name": "weight",
          "type": "uint256"
        },
        {
          "name": "sender",
          "type": "address"
        },
        {
          "name": "status",
          "type": "uint8"
        },
        {
          "name": "receiver",
          "type": "address"
        }
      ],
      "payable": false,
      "stateMutability": "view",
      "type": "function"
    },
    {
      "constant": true,
      "inputs": [],
      "name": "packageCount",
      "outputs": [
        {
          "name": "",
          "type": "uint256"
        }
      ],
      "payable": false,
      "stateMutability": "view",
      "type": "function"
    },
    {
      "anonymous": false,
      "inputs": [
        {
          "indexed": false,
          "name": "id",
          "type": "uint256"
        },
        {
          "indexed": false,
          "name": "sender",
          "type": "address"
        },
        {
          "indexed": false,
          "name": "receiver",
          "type": "address"
        },
        {
          "indexed": false,
          "name": "weight",
          "type": "uint256"
        }
      ],
      "name": "PackageBooked",
      "type": "event"
    },
    {
      "anonymous": false,
      "inputs": [
        {
          "indexed": false,
          "name": "id",
          "type": "uint256"
        },
        {
          "indexed": false,
          "name": "courier",
          "type": "address"
        },
        {
          "indexed": false,
          "name": "sender",
          "type": "address"
        },
        {
          "indexed": false,
          "name": "receiver",
          "type": "address"
        }
      ],
      "name": "PackagePicked",
      "type": "event"
    },
    {
      "anonymous": false,
      "inputs": [
        {
          "indexed": false,
          "name": "id",
          "type": "uint256"
        },
        {
          "indexed": false,
          "name": "courier",
          "type": "address"
        },
        {
          "indexed": false,
          "name": "sender",
          "type": "address"
        },
        {
          "indexed": false,
          "name": "receiver",
          "type": "address"
        }
      ],
      "name": "PackageArrived",
      "type": "event"
    },
    {
      "anonymous": false,
      "inputs": [
        {
          "indexed": false,
          "name": "id",
          "type": "uint256"
        },
        {
          "indexed": false,
          "name": "courier",
          "type": "address"
        },
        {
          "indexed": false,
          "name": "sender",
          "type": "address"
        },
        {
          "indexed": false,
          "name": "receiver",
          "type": "address"
        }
      ],
      "name": "PackageReceived",
      "type": "event"
    },
    {
      "anonymous": false,
      "inputs": [
        {
          "indexed": false,
          "name": "id",
          "type": "uint256"
        },
        {
          "indexed": false,
          "name": "courier",
          "type": "address"
        },
        {
          "indexed": false,
          "name": "sender",
          "type": "address"
        },
        {
          "indexed": false,
          "name": "receiver",
          "type": "address"
        }
      ],
      "name": "PackageCancelled",
      "type": "event"
    },
    {
      "constant": false,
      "inputs": [
        {
          "name": "_weight",
          "type": "uint256"
        },
        {
          "name": "_receiver",
          "type": "address"
        }
      ],
      "name": "bookPackage",
      "outputs": [
        {
          "name": "",
          "type": "uint256"
        }
      ],
      "payable": true,
      "stateMutability": "payable",
      "type": "function"
    },
    {
      "constant": false,
      "inputs": [
        {
          "name": "_id",
          "type": "uint256"
        }
      ],
      "name": "pickPackage",
      "outputs": [],
      "payable": false,
      "stateMutability": "nonpayable",
      "type": "function"
    },
    {
      "constant": false,
      "inputs": [
        {
          "name": "_id",
          "type": "uint256"
        }
      ],
      "name": "arrivedPackage",
      "outputs": [],
      "payable": false,
      "stateMutability": "nonpayable",
      "type": "function"
    },
    {
      "constant": false,
      "inputs": [
        {
          "name": "_id",
          "type": "uint256"
        }
      ],
      "name": "receivedPackage",
      "outputs": [
        {
          "name": "",
          "type": "bool"
        }
      ],
      "payable": false,
      "stateMutability": "nonpayable",
      "type": "function"
    },
    {
      "constant": false,
      "inputs": [
        {
          "name": "_id",
          "type": "uint256"
        }
      ],
      "name": "cancelPackage",
      "outputs": [
        {
          "name": "",
          "type": "bool"
        }
      ],
      "payable": false,
      "stateMutability": "nonpayable",
      "type": "function"
    }
  ],
  "bytecode": "0x60806040526001805534801561001457600080fd5b506113c9806100246000396000f3fe608060405260043610610099576000357c0100000000000000000000000000000000000000000000000000000000900463ffffffff16806303bb09741461009e57806322c90e501461011957806346d829441461017b5780636354f293146101ce5780636d445b551461020957806375ac50321461025c5780639f58e246146102c1578063c216212a146102fc578063ee0ebe0c146103cd575b600080fd5b3480156100aa57600080fd5b506100d7600480360360208110156100c157600080fd5b81019080803590602001909291905050506103f8565b604051808273ffffffffffffffffffffffffffffffffffffffff1673ffffffffffffffffffffffffffffffffffffffff16815260200191505060405180910390f35b6101656004803603604081101561012f57600080fd5b8101908080359060200190929190803573ffffffffffffffffffffffffffffffffffffffff16906020019092919050505061042b565b6040518082815260200191505060405180910390f35b34801561018757600080fd5b506101b46004803603602081101561019e57600080fd5b81019080803590602001909291905050506106fd565b604051808215151515815260200191505060405180910390f35b3480156101da57600080fd5b50610207600480360360208110156101f157600080fd5b8101908080359060200190929190505050610aa3565b005b34801561021557600080fd5b506102426004803603602081101561022c57600080fd5b8101908080359060200190929190505050610cc4565b604051808215151515815260200191505060405180910390f35b34801561026857600080fd5b506102ab6004803603602081101561027f57600080fd5b81019080803573ffffffffffffffffffffffffffffffffffffffff1690602001909291905050506110b0565b6040518082815260200191505060405180910390f35b3480156102cd57600080fd5b506102fa600480360360208110156102e457600080fd5b81019080803590602001909291905050506110c8565b005b34801561030857600080fd5b506103356004803603602081101561031f57600080fd5b8101908080359060200190929190505050611314565b604051808681526020018581526020018473ffffffffffffffffffffffffffffffffffffffff1673ffffffffffffffffffffffffffffffffffffffff16815260200183600481111561038357fe5b60ff1681526020018273ffffffffffffffffffffffffffffffffffffffff1673ffffffffffffffffffffffffffffffffffffffff1681526020019550505050505060405180910390f35b3480156103d957600080fd5b506103e2611397565b6040518082815260200191505060405180910390f35b60026020528060005260406000206000915054906101000a900473ffffffffffffffffffffffffffffffffffffffff1681565b60006001548302341415156104a8576040517f08c379a00000000000000000000000000000000000000000000000000000000081526004018080602001828103825260108152602001807f496e636f727265637420616d6f756e740000000000000000000000000000000081525060200191505060405180910390fd5b600080815480929190600101919050555060008054905060a0604051908101604052808281526020018581526020013373ffffffffffffffffffffffffffffffffffffffff1681526020016004808111156104ff57fe5b81526020018473ffffffffffffffffffffffffffffffffffffffff1681525060046000838152602001908152602001600020600082015181600001556020820151816001015560408201518160020160006101000a81548173ffffffffffffffffffffffffffffffffffffffff021916908373ffffffffffffffffffffffffffffffffffffffff16021790555060608201518160020160146101000a81548160ff021916908360048111156105b057fe5b021790555060808201518160030160006101000a81548173ffffffffffffffffffffffffffffffffffffffff021916908373ffffffffffffffffffffffffffffffffffffffff16021790555090505034600360003373ffffffffffffffffffffffffffffffffffffffff1673ffffffffffffffffffffffffffffffffffffffff168152602001908152602001600020600082825401925050819055507f15c81285c71357151770e25e47022c38b4ae256600c50c21b34532b1fdb9ee3e81338587604051808581526020018473ffffffffffffffffffffffffffffffffffffffff1673ffffffffffffffffffffffffffffffffffffffff1681526020018373ffffffffffffffffffffffffffffffffffffffff1673ffffffffffffffffffffffffffffffffffffffff16815260200182815260200194505050505060405180910390a18091505092915050565b6000806004600084815260200190815260200160002090503373ffffffffffffffffffffffffffffffffffffffff168160030160009054906101000a900473ffffffffffffffffffffffffffffffffffffffff1673ffffffffffffffffffffffffffffffffffffffff1614801561079b57506003600481111561077c57fe5b8160020160149054906101000a900460ff16600481111561079957fe5b145b1515610835576040517f08c379a00000000000000000000000000000000000000000000000000000000081526004018080602001828103825260218152602001807f5061636b61676520617272697665642061742077726f6e67207265636569766581526020017f720000000000000000000000000000000000000000000000000000000000000081525060400191505060405180910390fd5b6000600154826001015402905060006002600086815260200190815260200160002060009054906101000a900473ffffffffffffffffffffffffffffffffffffffff1690508260020160009054906101000a900473ffffffffffffffffffffffffffffffffffffffff1673ffffffffffffffffffffffffffffffffffffffff166108fc839081150290604051600060405180830381858888f1935050505015610a965760018360020160146101000a81548160ff021916908360048111156108f957fe5b021790555081600360008560020160009054906101000a900473ffffffffffffffffffffffffffffffffffffffff1673ffffffffffffffffffffffffffffffffffffffff1673ffffffffffffffffffffffffffffffffffffffff168152602001908152602001600020600082825403925050819055507f0f0bbb8e4ddf2f6140d8784b5180f07db3074d26f18036261d2d344156b940e685828560020160009054906101000a900473ffffffffffffffffffffffffffffffffffffffff168660030160009054906101000a900473ffffffffffffffffffffffffffffffffffffffff16604051808581526020018473ffffffffffffffffffffffffffffffffffffffff1673ffffffffffffffffffffffffffffffffffffffff1681526020018373ffffffffffffffffffffffffffffffffffffffff1673ffffffffffffffffffffffffffffffffffffffff1681526020018273ffffffffffffffffffffffffffffffffffffffff1673ffffffffffffffffffffffffffffffffffffffff16815260200194505050505060405180910390a160019350505050610a9e565b600093505050505b919050565b600060046000838152602001908152602001600020905060006004811115610ac757fe5b8160020160149054906101000a900460ff166004811115610ae457fe5b141515610b7f576040517f08c379a000000000000000000000000000000000000000000000000000000000815260040180806020018281038252602b8152602001807f5061636b61676520776173206e6f7420696e207472616e73697420666f72206981526020017f7420746f2061727269766500000000000000000000000000000000000000000081525060400191505060405180910390fd5b60038160020160146101000a81548160ff02191690836004811115610ba057fe5b02179055507fa0acc237fca38cbbf68fc81215c674ba80c7c783ee3319dc236d5e9aad80860a82338360020160009054906101000a900473ffffffffffffffffffffffffffffffffffffffff168460030160009054906101000a900473ffffffffffffffffffffffffffffffffffffffff16604051808581526020018473ffffffffffffffffffffffffffffffffffffffff1673ffffffffffffffffffffffffffffffffffffffff1681526020018373ffffffffffffffffffffffffffffffffffffffff1673ffffffffffffffffffffffffffffffffffffffff1681526020018273ffffffffffffffffffffffffffffffffffffffff1673ffffffffffffffffffffffffffffffffffffffff16815260200194505050505060405180910390a15050565b6000806004600084815260200190815260200160002090508060020160009054906101000a900473ffffffffffffffffffffffffffffffffffffffff1673ffffffffffffffffffffffffffffffffffffffff163373ffffffffffffffffffffffffffffffffffffffff16141515610dc9576040517f08c379a000000000000000000000000000000000000000000000000000000000815260040180806020018281038252602f8152602001807f596f7520646f206e6f74206861766520617574686f72697a6174696f6e20746f81526020017f2063616e63656c207061636b616765000000000000000000000000000000000081525060400191505060405180910390fd5b6000600154826001015402905060006002600086815260200190815260200160002060009054906101000a900473ffffffffffffffffffffffffffffffffffffffff16905060006004811115610e1b57fe5b8360020160149054906101000a900460ff166004811115610e3857fe5b1415611042578073ffffffffffffffffffffffffffffffffffffffff166108fc839081150290604051600060405180830381858888f19350505050156110365760028360020160146101000a81548160ff02191690836004811115610e9957fe5b021790555081600360008560020160009054906101000a900473ffffffffffffffffffffffffffffffffffffffff1673ffffffffffffffffffffffffffffffffffffffff1673ffffffffffffffffffffffffffffffffffffffff168152602001908152602001600020600082825403925050819055507f0ef9e8bc3c5dac186d22e5698167ba7f60b0d02b06da1719a23434dfa8bfcc8c85828560020160009054906101000a900473ffffffffffffffffffffffffffffffffffffffff168660030160009054906101000a900473ffffffffffffffffffffffffffffffffffffffff16604051808581526020018473ffffffffffffffffffffffffffffffffffffffff1673ffffffffffffffffffffffffffffffffffffffff1681526020018373ffffffffffffffffffffffffffffffffffffffff1673ffffffffffffffffffffffffffffffffffffffff1681526020018273ffffffffffffffffffffffffffffffffffffffff1673ffffffffffffffffffffffffffffffffffffffff16815260200194505050505060405180910390a1600193505050506110ab565b600093505050506110ab565b60048081111561104e57fe5b8360020160149054906101000a900460ff16600481111561106b57fe5b14156110a35760028360020160146101000a81548160ff0219169083600481111561109257fe5b0217905550600193505050506110ab565b600093505050505b919050565b60036020528060005260406000206000915090505481565b60006004600083815260200190815260200160002090506004808111156110eb57fe5b8160020160149054906101000a900460ff16600481111561110857fe5b14151561117d576040517f08c379a000000000000000000000000000000000000000000000000000000000815260040180806020018281038252601d8152602001807f5061636b61676520697320616c7265616479206469737061746368656400000081525060200191505060405180910390fd5b60008160020160146101000a81548160ff0219169083600481111561119e57fe5b0217905550336002600084815260200190815260200160002060006101000a81548173ffffffffffffffffffffffffffffffffffffffff021916908373ffffffffffffffffffffffffffffffffffffffff1602179055507f30311efc9cdf813f3ee8cae5eb0107133fc341a6813e470d083029453fe687c182338360020160009054906101000a900473ffffffffffffffffffffffffffffffffffffffff168460030160009054906101000a900473ffffffffffffffffffffffffffffffffffffffff16604051808581526020018473ffffffffffffffffffffffffffffffffffffffff1673ffffffffffffffffffffffffffffffffffffffff1681526020018373ffffffffffffffffffffffffffffffffffffffff1673ffffffffffffffffffffffffffffffffffffffff1681526020018273ffffffffffffffffffffffffffffffffffffffff1673ffffffffffffffffffffffffffffffffffffffff16815260200194505050505060405180910390a15050565b60046020528060005260406000206000915090508060000154908060010154908060020160009054906101000a900473ffffffffffffffffffffffffffffffffffffffff16908060020160149054906101000a900460ff16908060030160009054906101000a900473ffffffffffffffffffffffffffffffffffffffff16905085565b6000548156fea165627a7a72305820b096f0fe80c60e6baf3504aac600f9db455f656f0cd62b2d1cc01f4d2d3289d20029",
  "source": "pragma solidity ^0.5.0;\r\n\r\ncontract Courier {\r\n    enum PackageStatus {\r\n        inTransit,\r\n        received,\r\n        cancelled,\r\n        arrived,\r\n        booked\r\n    }\r\n\r\n    struct Package {\r\n        uint id;\r\n        uint weight;\r\n        address payable sender;\r\n        PackageStatus status;\r\n        address payable receiver;\r\n    }\r\n\r\n    uint public packageCount;\r\n    uint MULTIPLIER = 1;\r\n    mapping (uint => address payable) public packageCourierId;\r\n    mapping (address => uint) public pendingDeliveryCharge;\r\n    mapping (uint => Package) public packages;\r\n\r\n    event PackageBooked(uint id, address sender, address receiver, uint weight);\r\n    event PackagePicked(uint id, address courier, address sender, address receiver);\r\n    event PackageArrived(uint id, address courier, address sender, address receiver);\r\n    event PackageReceived(uint id, address courier, address sender, address receiver);\r\n    event PackageCancelled(uint id, address courier, address sender, address receiver);\r\n\r\n    function bookPackage(uint _weight, address payable _receiver) public payable returns (uint) {\r\n        require(msg.value == _weight * MULTIPLIER, \"Incorrect amount\");\r\n\r\n        packageCount++;\r\n        uint id = packageCount;\r\n\r\n        packages[id] = Package(id, _weight, msg.sender, PackageStatus.booked, _receiver);\r\n        pendingDeliveryCharge[msg.sender] += msg.value;\r\n\r\n        emit PackageBooked(id, msg.sender, _receiver, _weight);\r\n\r\n        return id;\r\n    }\r\n\r\n    function pickPackage(uint _id) public {\r\n        Package storage currentPackage = packages[_id];\r\n        require(currentPackage.status == PackageStatus.booked, \"Package is already dispatched\");\r\n        currentPackage.status = PackageStatus.inTransit;\r\n\r\n        packageCourierId[_id] = msg.sender;\r\n\r\n        emit PackagePicked(_id, msg.sender, currentPackage.sender, currentPackage.receiver);\r\n    }\r\n\r\n    function arrivedPackage(uint _id) public {\r\n        Package storage currentPackage = packages[_id];\r\n        require(currentPackage.status == PackageStatus.inTransit, \"Package was not in transit for it to arrive\");\r\n        currentPackage.status = PackageStatus.arrived;\r\n\r\n        emit PackageArrived(_id, msg.sender, currentPackage.sender, currentPackage.receiver);\r\n    }\r\n\r\n    function receivedPackage(uint _id) public returns (bool) {\r\n        Package storage currentPackage = packages[_id];\r\n        require(currentPackage.receiver == msg.sender && currentPackage.status == PackageStatus.arrived, \"Package arrived at wrong receiver\");\r\n\r\n        uint deliveryCharge = currentPackage.weight * MULTIPLIER;\r\n        address payable courier = packageCourierId[_id];\r\n\r\n        if (address(currentPackage.sender).send(deliveryCharge)) {\r\n            currentPackage.status = PackageStatus.received;\r\n            pendingDeliveryCharge[currentPackage.sender] -= deliveryCharge;\r\n\r\n            emit PackageReceived(_id, courier, currentPackage.sender, currentPackage.receiver);\r\n\r\n            return true;\r\n        } else {\r\n            return false;\r\n        }\r\n    }\r\n\r\n    function cancelPackage(uint _id) public returns (bool) {\r\n        Package storage currentPackage = packages[_id];\r\n        require(msg.sender == currentPackage.sender, \"You do not have authorization to cancel package\");\r\n\r\n        uint deliveryCharge = currentPackage.weight * MULTIPLIER;\r\n        address payable courier = packageCourierId[_id];\r\n\r\n        if (currentPackage.status == PackageStatus.inTransit) {\r\n            if (courier.send(deliveryCharge)) {\r\n                currentPackage.status = PackageStatus.cancelled;\r\n                pendingDeliveryCharge[currentPackage.sender] -= deliveryCharge;\r\n                emit PackageCancelled(_id, courier, currentPackage.sender, currentPackage.receiver);\r\n                return true;\r\n            } else {\r\n                return false;\r\n            }\r\n        } else if (currentPackage.status == PackageStatus.booked) {\r\n            currentPackage.status = PackageStatus.cancelled;\r\n            return true;\r\n        } else {\r\n            return false;\r\n        }\r\n    }\r\n}\r\n",
  "sourcePath": "C:\\Users\\k-erd\\OneDrive\\Masaüstü\\courier-service\\contracts\\Courier.sol",
  "compiler": {
    "name": "solc",
    "version": "0.5.0+commit.1d4f565a.Emscripten.clang"
  },
  "schemaVersion": "3.4.14",
  "updatedAt": "2023-06-21T07:59:09.179Z",
  "networkType": "ethereum",
  "devdoc": {
    "methods": {}
  },
  "userdoc": {
    "methods": {}
  }
}